:100000000C9434000C9451000C9451000C94510049
:100010000C9451000C9451000C9451000C9451001C
:100020000C9451000C9451000C9451000C9451000C
:100030000C9451000C9451000C9451000C945100FC
:100040000C9451000C9451000C9451000C945100EC
:100050000C9451000C9451000C9451000C945100DC
:100060000C9451000C94510011241FBECFEFD8E026
:10007000DEBFCDBF22E0AEE0B2E001C01D92A431F0
:10008000B207E1F712E0A0E0B1E0E2ECF1E102C07A
:1000900005900D92AE30B107D9F70E9438010C944B
:1000A000DF080C9400002A988EBD0DB407FEFDCF2A
:1000B0008EB5FB01460F571F4E175F0711F42A9AA2
:1000C000089590819EBD0DB407FEFDCF9EB591931E
:1000D000F3CF8091C00087FFFCCF8091C60090E0F5
:1000E0000895CF93C82F8A3019F48DE00E947100D3
:1000F0008091C00085FFFCCFC093C60090E080E0F7
:10010000CF9108958093BB0084E88093BC008091D8
:10011000BC0087FFFCCF9091B900987F81E09832B6
:1001200009F080E0089594EA9093BC009091BC009F
:1001300097FFFCCF9091B900987F983029F090916B
:10014000B900987F9031A1F48093BB0084E880933C
:10015000BC008091BC0087FFFCCF9091B900987FD4
:1001600081E0983119F0903409F080E081700895B1
:1001700080E008950F931F93CF93DF93082F162FDE
:10018000D72FC42F82E70E949300811106C080E020
:10019000DF91CF911F910F910895802F0E948200CF
:1001A0008823A9F383E70E949300882381F3E12F3A
:1001B000FD2F30E020E094E864EC50E040E0C130F6
:1001C00011F041E050E02417350794F46093BC002F
:1001D0004091BC0047FFFCCF4091BB0040832F5FA4
:1001E0003F4F31962C1748F394E99093BC00D0CF41
:1001F0009093BC004091BC0047FFFCCFEDCF0F9324
:100200001F93CF93DF9300D0CDB7DEB78B0142E0D1
:10021000BE016F5F7F4F80680E94BA00882329F07B
:1002200029813A81F801318320830F900F90DF916B
:10023000CF911F910F910895CF93DF93D82FC62FA1
:1002400082E70E949300811104C080E0DF91CF918A
:1002500008958D2F80680E9482008823B1F38C2F2F
:100260000E948200882389F394E99093BC00EECF2A
:10027000CF93DF93CDB7DEB7AA970FB6F894DEBF62
:100280000FBECDBF1092C50087E68093C40088E101
:100290008093C1008EE091E0909311028093100250
:1002A00080E091E090930F0280930E027894109278
:1002B000B90088E48093B80084E08093BC002FEFFD
:1002C00087EA91E6215080409040E1F700C00000AD
:1002D000219A229A2A9A2998249884B1886284B90A
:1002E00080E58CBD8DB581608DBDAFEFB1EEE4E0F2
:1002F000A150B040E040E1F700C000001EE01DA3A7
:1003000041E050E0BE016B5D7F4F80E20E945300F0
:1003100084E78BA341E050E0BE016D5D7F4F85E235
:100320000E94530019A341E050E0BE016F5D7F4F72
:1003300086E20E94530045E050E06CE171E080E30A
:100340000E94530080E3898341E050E08E010F5FFB
:100350001F4FB80187E20E94530050E040E070E078
:1003600060E081EE0E945300198241E0B80182E909
:100370000E94BA00811105C081E291E00E94CF0580
:10038000FFCF89818933C1F760E080E00E941C01C2
:100390006DEE81E00E941C016FEF82E00E941C0163
:1003A0006FEF83E00E941C0168E08EE00E941C0158
:1003B00060E28FE00E941C016FE080E00E941C015F
:1003C000569A5E98CE0106969AA789A76AE0262ECD
:1003D000312CBE016D5D7F4F88E10E94FF008823B4
:1003E000A1F08BA19CA1899708F4C6C15E9A8CA14B
:1003F0008F938BA18F93AAE4B1E0BF93AF930E9438
:10040000B9050F900F900F900F90BE016B5D7F4F5D
:1004100084E10E94FF008823E1F0BE01695D7F4F07
:1004200086E10E94FF008823A1F088A58F938FA109
:100430008F938EA18F938DA18F9385E591E09F93EC
:100440008F930E94B9050F900F900F900F900F900F
:100450000F90BE016F5D7F4F84E10E94FF008823F3
:1004600009F46EC0B80186E10E94FF00882309F4F8
:1004700067C069A17AA190E080E00E946D042B0121
:100480003C0169817A8190E080E00E946D044B011B
:100490005C0124E036E54EEE5FE30E9424059B01FB
:1004A000AC01C301B2010E94CC036B017C012BEDB6
:1004B00039EF4EE35FE3C301B2010E9424052B0133
:1004C0003C012DE73FE345EA5FE3C501B4010E942B
:1004D00024059B01AC01C301B2010E94CC034B0176
:1004E0005C019B01AC01B601C7010E941F051816F3
:1004F00014F44601570120E030E0A901B401C50120
:100500000E94390487FF04C0812C912CA12CB12CAE
:100510002FE332E84BEF5EE3B401C5010E942405EE
:100520004B015C010E943E047F936F93EEE6F1E085
:10053000FF93EF930E94B9050F900F900F900F90CB
:1005400085E0D8011D928A95E9F7539A5B9ABFEF2F
:10055000E1EEF4E0B150E040F040E1F700C000000F
:100560005B982FEF89EF90E0215080409040E1F7B9
:1005700000C000005B9AA5E0AA95F1F7000053982F
:10058000B5EDBA95F1F700004B99FDC0EFE3F1E04E
:100590003197F1F700C000004B9BF5C08FE391E06D
:1005A0000197F1F700C00000F80187E090E04B9B55
:1005B000FECFA7ECB0E01197F1F700C000004B9B15
:1005C0000AC0208141E050E0082E01C0440F0A9487
:1005D000EAF7242B20834B99FECF019740F7319601
:1005E00089A59AA58E179F0701F7539A5B9A9FEFEB
:1005F000A1EEB4E09150A040B040E1F700C000008F
:100600002B81EC8189819A81890F820F8E0F9D81C8
:100610008913B9C089819A81982789279827B101C0
:100620000E949105362F472FC62ED72E822F90E09D
:10063000982F882788279F778E2BB1010E949105DC
:100640007B0127FF03C0F194E194F1084F933F939E
:10065000FF92EF92E8ECF1E0FF93EF930E94B9056F
:100660000F900F900F900F900F900F90DF92CF92FE
:10067000FF92EF928CA18F938BA18F93C501B40150
:100680000E943E047F936F93E8E7F1E0FF93EF93BE
:100690001F9280E28F931F930F930E94FA0518A276
:1006A000F80101900020E9F73197E01BF10BFF936F
:1006B000EF931F930F9389E991E09F938F930E948B
:1006C000B905F80101900020E9F731977F01E01AA0
:1006D000F10A0FB6F894DEBF0FBECDBFF1E2EF1600
:1006E000F10418F080E2E82EF12C41E050E0BE0168
:1006F0006F5D7F4F80E00E94530089A18E7F8260F2
:1007000089A341E050E0BE016F5D7F4F80E20E940F
:1007100053002A9888EA8EBD0DB407FEFDCF90E005
:1007200080E08E159F0550F5F801E80FF91F208134
:100730002EBD0DB407FEFDCF01968032910589F7DD
:100740002A9A299A20E52A95F1F729981F930F9361
:100750008EEB91E09F938F930E94B9058FEF97EAFC
:10076000A1E681509040A040E1F700C000000F904A
:100770000F900F900F902DCE5E9839CE1EBC0DB409
:1007800007FEFDCFD9CF8FEE91E00E94CF05F12C6F
:10079000E12CC12CD12C6ACF5058BB27AA270E942C
:1007A000E4030C94E5040E94D70438F00E94DE04B0
:1007B00020F039F49F3F19F426F40C94D4040EF47D
:1007C000E095E7FB0C94CE04E92F0E94F60458F361
:1007D000BA17620773078407950720F079F4A6F526
:1007E0000C9418050EF4E0950B2EBA2FA02D0B01DA
:1007F000B90190010C01CA01A0011124FF27591B66
:1008000099F0593F50F4503E68F11A16F040A22F6B
:10081000232F342F4427585FF3CF469537952795DC
:10082000A795F0405395C9F77EF41F16BA0B620BDB
:10083000730B840BBAF09150A1F0FF0FBB1F661F22
:10084000771F881FC2F70EC0BA0F621F731F841F65
:1008500048F4879577956795B795F7959E3F08F08B
:10086000B0CF9395880F08F09927EE0F979587954D
:1008700008950E94AA0408F481E008950E94FE04ED
:1008800088F09F5798F0B92F9927B751B0F0E1F051
:10089000660F771F881F991F1AF0BA95C9F714C001
:1008A000B13091F00E941805B1E008950C9418053C
:1008B000672F782F8827B85F39F0B93FCCF386953A
:1008C00077956795B395D9F73EF490958095709597
:1008D00061957F4F8F4F9F4F0895E89409C097FB14
:1008E0003EF490958095709561957F4F8F4F9F4F07
:1008F0009923A9F0F92F96E9BB279395F69587954B
:1009000077956795B795F111F8CFFAF4BB0F11F40D
:1009100060FF1BC06F5F7F4F8F4F9F4F16C08823B4
:1009200011F096E911C0772321F09EE8872F762FEA
:1009300005C0662371F096E8862F70E060E02AF02B
:100940009A95660F771F881FDAF7880F9695879517
:1009500097F90895990F0008550FAA0BE0E8FEEFEC
:1009600016161706E807F907C0F012161306E40773
:10097000F50798F0621B730B840B950B39F40A266C
:1009800061F0232B242B252B21F408950A2609F44A
:10099000A140A6958FEF811D811D089597F99F674E
:1009A00080E870E060E008959FEF80EC08950024F7
:1009B0000A941616170618060906089500240A94C4
:1009C00012161306140605060895092E0394000C4A
:1009D00011F4882352F0BB0F40F4BF2B11F460FFD9
:1009E00004C06F5F7F4F8F4F9F4F089557FD905802
:1009F000440F551F59F05F3F71F04795880F97FBE3
:100A0000991F61F09F3F79F087950895121613069C
:100A10001406551FF2CF4695F1DF08C016161706CB
:100A20001806991FF1CF8695710561050894089500
:100A3000E894BB2766277727CB0197F908950E9492
:100A4000AA0408F48FEF08950E9437050C94E5047A
:100A50000E94D70438F00E94DE0420F0952311F0A4
:100A60000C94CE040C94D40411240C9419050E9407
:100A7000F60470F3959FC1F3950F50E0551F629FE8
:100A8000F001729FBB27F00DB11D639FAA27F00DE7
:100A9000B11DAA1F649F6627B00DA11D661F829F0E
:100AA0002227B00DA11D621F739FB00DA11D621FF3
:100AB000839FA00D611D221F749F3327A00D611D10
:100AC000231F849F600D211D822F762F6A2F1124F2
:100AD0009F5750409AF0F1F088234AF0EE0FFF1F25
:100AE000BB1F661F771F881F91505040A9F79E3F7C
:100AF000510580F00C94CE040C9419055F3FE4F38B
:100B0000983ED4F3869577956795B795F795E795D1
:100B10009F5FC1F7FE2B880F911D9695879597F9DA
:100B2000089597FB072E16F4009407D077FD09D09F
:100B30000E94A50507FC05D03EF4909581959F4F36
:100B40000895709561957F4F0895AA1BBB1B51E1D5
:100B500007C0AA1FBB1FA617B70710F0A61BB70B2D
:100B6000881F991F5A95A9F780959095BC01CD01D2
:100B70000895B0E0A0E0EFEBF5E00C94B808AE010A
:100B80004B5F5F4FFA0161917191AF01809110024B
:100B9000909111020E942A06E2E00C94D4080F936F
:100BA0001F93CF93DF93E0911002F0911102238104
:100BB000EC0110E000E021FD08C00FEF1FEF14C0B2
:100BC0000995892B11F00FEF1FEF899160911002A9
:100BD00070911102DB011896ED91FC918111F0CF1B
:100BE0008AE00995892B49F7C801DF91CF911F91C0
:100BF0000F910895AEE0B0E0E0E0F6E00C94B608A6
:100C00000D891E898F89988D26E02C831A8309838C
:100C100097FF02C080E090E801979E838D83AE012C
:100C2000455E5F4F698D7A8DCE0101960E942A063E
:100C30004D815E8157FD0AC02F81388542175307C9
:100C40000CF49A01020F131FF80110822E96E4E0B3
:100C50000C94D208ABE0B0E0E0E3F6E00C94A80816
:100C60007C013B018A01FC0117821682838181FF8E
:100C7000C8C1CE0101965C01F7019381F30193FD98
:100C8000859193FF81913F01882309F453C18532F7
:100C900039F493FD859193FF81913F01853229F4C9
:100CA000B70190E00E941A08E7CF912C212C312C3B
:100CB000FFE1F31538F08B3211F190F4803209F135
:100CC000833229F137FC3CC020ED280F2A3050F543
:100CD00036FE20C08AE0989E200D1124922E06C078
:100CE0008D3291F0803371F7689430F8F30193FD01
:100CF000859193FF81913F018111DACF21C06894E2
:100D000031F8689432F8F2CF689433F8EFCF6894F2
:100D100034F8ECCFEAE02E9E200D1124222E6894A8
:100D200035F8E4CF8E3229F436FC04C1689436F8E5
:100D3000DDCF8C3619F4689437F8D8CF8836B1F205
:100D4000982F9F7D95549330E0F08336A1F183373F
:100D5000C1F1833509F063C02801F2E04F0E511C48
:100D6000F801C080D180692D70E036FC02C06FEFC1
:100D70007FEFC6010E9404084C01689437F8820195
:100D80000AC00C5F1F4FFFE3F98388248394912CE2
:100D90006501E89437F833FE2DC0522C811491047C
:100DA00071F5552009F468CFB70180E290E00E9408
:100DB0001A085A94F6CFF801808189830E5F1F4F7D
:100DC000E4CF2801F2E04F0E511CF801C080D18021
:100DD000692D70E036FC02C06FEF7FEFC6010E9404
:100DE0000F084C018201D5CFB70180E290E00E944C
:100DF0001A082A942814190409F0B0F7CECFF60186
:100E000037FC859137FE81916F01B70190E00E9418
:100E10001A0851105A94F1E08F1A9108BFCF843606
:100E200019F0893609F077C0F80137FE6BC0608190
:100E30007181828193810C5F1F4FF32DFF763F2ECE
:100E400097FF09C090958095709561957F4F8F4F62
:100E50009F4F689437F82AE030E0A5010E944A08C5
:100E6000C82ECA188C2C432C36FE0CC0E89440F8CF
:100E7000C91440F434FE05C032FC03C0F32DFE7EDD
:100E80004F2E892C44FE95C0FE01EC0DF11D808192
:100E9000803309F087C0242D297E422E842D88704E
:100EA000582E43FC95C040FE8FC09C2C821418F431
:100EB0002C0C922C981844FE91C0B70180E390E06E
:100EC0000E941A0842FE09C088E790E041FE02C075
:100ED00088E590E0B7010E941A08C91408F48AC096
:100EE000CA94D12C9FEFC91AD90ACA0CDB1CF6018F
:100EF00082916F01B70190E00E941A08AC14BD0402
:100F0000B1F74FCF60817181072E000C880B990BD0
:100F10000E5F1F4F92CFD32CE894D4F82AE030E034
:100F2000853739F1232D297FD22E8F3601F148F4F0
:100F30008835A9F0F701868197812B96E2E10C9420
:100F4000C408803749F08837A9F7D4FE02C06894F6
:100F5000D2F820E130E00DC06894D4F8F6CF34FE2A
:100F600003C0822F8660D82E20E132E002C028E044
:100F700030E0F801D7FE0FC06081718182819381DA
:100F80000C5F1F4FA5010E944A08C82ECA183D2CAD
:100F9000E89437F867CF6081718190E080E00E5F60
:100FA0001F4FF0CF42FC02C0839478CF8394839488
:100FB00075CF842D867809F471CFF6CFB70180E222
:100FC00090E00E941A0883948214C0F3512C73CFCE
:100FD000522C5818821408F46ECFF8CF842D8678DE
:100FE00009F47BCF8BE241FE80E247FC8DE2B70142
:100FF00090E071CFB70180E390E00E941A089A94C4
:101000006CCF8FEF9FEF99CFFC010590615070403E
:101010000110D8F7809590958E0F9F1F0895FC01C1
:101020006150704001900110D8F7809590958E0F17
:101030009F1F08950F931F93CF93DF93182F092FAE
:10104000EB018B8181FD09C01FEF0FEF812F902FE6
:10105000DF91CF911F910F91089582FF14C02E81CF
:101060003F818C819D81281739073CF4E881F98103
:10107000CF0101969983888310838E819F81019689
:101080009F838E83E3CFE885F985812F0995892B8E
:10109000A1F3DACFFA01AA27283051F1203181F1EA
:1010A000E8946F936E7F6E5F7F4F8F4F9F4FAF4F70
:1010B000B1E03ED0B4E03CD0670F781F891F9A1F83
:1010C000A11D680F791F8A1F911DA11D6A0F711D37
:1010D000811D911DA11D20D009F468943F912AE043
:1010E000269F11243019305D3193DEF6CF0108952B
:1010F000462F4770405D4193B3E00FD0C9F7F6CF5C
:10110000462F4F70405D4A3318F0495D31FD405223
:10111000419302D0A9F7EACFB4E0A69597958795B9
:1011200077956795BA95C9F7009761057105089598
:101130009B01AC010A2E0694579547953795279544
:10114000BA95C9F7620F731F841F951FA01D0895DC
:101150002F923F924F925F926F927F928F929F92C7
:10116000AF92BF92CF92DF92EF92FF920F931F93B5
:10117000CF93DF93CDB7DEB7CA1BDB0B0FB6F89466
:10118000DEBF0FBECDBF09942A88398848885F84A6
:101190006E847D848C849B84AA84B984C884DF8017
:1011A000EE80FD800C811B81AA81B981CE0FD11DFB
:1011B0000FB6F894DEBF0FBECDBFED010895F894D1
:0211C000FFCF5F
:1011C20000000001000000000000690000000000B3
:1011D200000200000000710000000000E7E7E7E7FE
:1011E200E7496E697469616C697A6172656120733D
:1011F200656E7A6F72756C75692041504453206E2A
:101202006572657573697461210050726F78203D53
:1012120020257509005261773A20434830203D204D
:1012220025752C20434831203D20257509004C7539
:1012320078203D2025750A004C75783A2575205096
:10124200726F783A25752054656D703A2564205581
:101252006D696469743A2564005472696D697465D4
:101262006D206D6573616A3A20222573222028253C
:101272007520636172616374657265290A0054584E
:101282003A20222573220A0054656D7065726174DA
:101292007572613A20256920432C20556D69646975
:1012A200746174653A20256920252552480A004553
:1012B200726F617265206C61206369746972656125
:0E12C200206465206C612044485432320000E4
:00000001FF
